{
  "_format": "hh-sol-artifact-1",
  "contractName": "MerkleAirdrop",
  "sourceName": "contracts/MerkleAirdrop.sol",
  "abi": [
    {
      "inputs": [
        {
          "internalType": "address",
          "name": "_token",
          "type": "address"
        },
        {
          "internalType": "bytes32",
          "name": "_merkleRoot",
          "type": "bytes32"
        }
      ],
      "stateMutability": "nonpayable",
      "type": "constructor"
    },
    {
      "anonymous": false,
      "inputs": [
        {
          "indexed": true,
          "internalType": "address",
          "name": "claimant",
          "type": "address"
        },
        {
          "indexed": false,
          "internalType": "uint256",
          "name": "amount",
          "type": "uint256"
        }
      ],
      "name": "AirdropClaimed",
      "type": "event"
    },
    {
      "inputs": [
        {
          "internalType": "address",
          "name": "_address",
          "type": "address"
        },
        {
          "internalType": "uint256",
          "name": "amount",
          "type": "uint256"
        },
        {
          "internalType": "bytes32[]",
          "name": "merkleProof",
          "type": "bytes32[]"
        }
      ],
      "name": "claimAirdrop",
      "outputs": [],
      "stateMutability": "nonpayable",
      "type": "function"
    },
    {
      "inputs": [
        {
          "internalType": "address",
          "name": "",
          "type": "address"
        }
      ],
      "name": "hasClaimed",
      "outputs": [
        {
          "internalType": "bool",
          "name": "",
          "type": "bool"
        }
      ],
      "stateMutability": "view",
      "type": "function"
    },
    {
      "inputs": [],
      "name": "merkleRoot",
      "outputs": [
        {
          "internalType": "bytes32",
          "name": "",
          "type": "bytes32"
        }
      ],
      "stateMutability": "view",
      "type": "function"
    },
    {
      "inputs": [],
      "name": "token",
      "outputs": [
        {
          "internalType": "contract IERC20",
          "name": "",
          "type": "address"
        }
      ],
      "stateMutability": "view",
      "type": "function"
    }
  ],
  "bytecode": "0x608060405234801561001057600080fd5b5060405162000c4238038062000c428339818101604052810190610034919061011b565b816000806101000a81548173ffffffffffffffffffffffffffffffffffffffff021916908373ffffffffffffffffffffffffffffffffffffffff16021790555080600181905550505061015b565b600080fd5b600073ffffffffffffffffffffffffffffffffffffffff82169050919050565b60006100b282610087565b9050919050565b6100c2816100a7565b81146100cd57600080fd5b50565b6000815190506100df816100b9565b92915050565b6000819050919050565b6100f8816100e5565b811461010357600080fd5b50565b600081519050610115816100ef565b92915050565b6000806040838503121561013257610131610082565b5b6000610140858286016100d0565b925050602061015185828601610106565b9150509250929050565b610ad7806200016b6000396000f3fe608060405234801561001057600080fd5b506004361061004c5760003560e01c80632eb4a7ab1461005157806373b2e80e1461006f578063a0e848c71461009f578063fc0c546a146100bb575b600080fd5b6100596100d9565b604051610066919061054b565b60405180910390f35b610089600480360381019061008491906105ce565b6100df565b6040516100969190610616565b60405180910390f35b6100b960048036038101906100b491906106cc565b6100ff565b005b6100c3610465565b6040516100d0919061079f565b60405180910390f35b60015481565b60026020528060005260406000206000915054906101000a900460ff1681565b600073ffffffffffffffffffffffffffffffffffffffff168473ffffffffffffffffffffffffffffffffffffffff160361016e576040517f08c379a000000000000000000000000000000000000000000000000000000000815260040161016590610817565b60405180910390fd5b600260008573ffffffffffffffffffffffffffffffffffffffff1673ffffffffffffffffffffffffffffffffffffffff16815260200190815260200160002060009054906101000a900460ff16156101fb576040517f08c379a00000000000000000000000000000000000000000000000000000000081526004016101f290610883565b60405180910390fd5b600084846040516020016102109291906108c1565b60405160208183030381529060405280519060200120604051602001610236919061090b565b60405160208183030381529060405280519060200120905061029c838380806020026020016040519081016040528093929190818152602001838360200280828437600081840152601f19601f8201169050808301925050505050505060015483610489565b6102db576040517f08c379a00000000000000000000000000000000000000000000000000000000081526004016102d290610972565b60405180910390fd5b6001600260008773ffffffffffffffffffffffffffffffffffffffff1673ffffffffffffffffffffffffffffffffffffffff16815260200190815260200160002060006101000a81548160ff02191690831515021790555060008054906101000a900473ffffffffffffffffffffffffffffffffffffffff1673ffffffffffffffffffffffffffffffffffffffff1663a9059cbb86866040518363ffffffff1660e01b815260040161038e9291906108c1565b6020604051808303816000875af11580156103ad573d6000803e3d6000fd5b505050506040513d601f19601f820116820180604052508101906103d191906109be565b610410576040517f08c379a000000000000000000000000000000000000000000000000000000000815260040161040790610a37565b60405180910390fd5b8473ffffffffffffffffffffffffffffffffffffffff167f650e45f04ef8a0c267b2f78d983913f69ae3a353b2b32de5429307522be0ab55856040516104569190610a57565b60405180910390a25050505050565b60008054906101000a900473ffffffffffffffffffffffffffffffffffffffff1681565b60008261049685846104a0565b1490509392505050565b60008082905060005b84518110156104e5576104d6828683815181106104c9576104c8610a72565b5b60200260200101516104f0565b915080806001019150506104a9565b508091505092915050565b600081831061050857610503828461051b565b610513565b610512838361051b565b5b905092915050565b600082600052816020526040600020905092915050565b6000819050919050565b61054581610532565b82525050565b6000602082019050610560600083018461053c565b92915050565b600080fd5b600080fd5b600073ffffffffffffffffffffffffffffffffffffffff82169050919050565b600061059b82610570565b9050919050565b6105ab81610590565b81146105b657600080fd5b50565b6000813590506105c8816105a2565b92915050565b6000602082840312156105e4576105e3610566565b5b60006105f2848285016105b9565b91505092915050565b60008115159050919050565b610610816105fb565b82525050565b600060208201905061062b6000830184610607565b92915050565b6000819050919050565b61064481610631565b811461064f57600080fd5b50565b6000813590506106618161063b565b92915050565b600080fd5b600080fd5b600080fd5b60008083601f84011261068c5761068b610667565b5b8235905067ffffffffffffffff8111156106a9576106a861066c565b5b6020830191508360208202830111156106c5576106c4610671565b5b9250929050565b600080600080606085870312156106e6576106e5610566565b5b60006106f4878288016105b9565b945050602061070587828801610652565b935050604085013567ffffffffffffffff8111156107265761072561056b565b5b61073287828801610676565b925092505092959194509250565b6000819050919050565b600061076561076061075b84610570565b610740565b610570565b9050919050565b60006107778261074a565b9050919050565b60006107898261076c565b9050919050565b6107998161077e565b82525050565b60006020820190506107b46000830184610790565b92915050565b600082825260208201905092915050565b7f41646472657373205a65726f2044657465637465642e00000000000000000000600082015250565b60006108016016836107ba565b915061080c826107cb565b602082019050919050565b60006020820190508181036000830152610830816107f4565b9050919050565b7f41697264726f7020616c726561647920636c61696d65642e0000000000000000600082015250565b600061086d6018836107ba565b915061087882610837565b602082019050919050565b6000602082019050818103600083015261089c81610860565b9050919050565b6108ac81610590565b82525050565b6108bb81610631565b82525050565b60006040820190506108d660008301856108a3565b6108e360208301846108b2565b9392505050565b6000819050919050565b61090561090082610532565b6108ea565b82525050565b600061091782846108f4565b60208201915081905092915050565b7f496e76616c6964204d65726b6c652070726f6f662e0000000000000000000000600082015250565b600061095c6015836107ba565b915061096782610926565b602082019050919050565b6000602082019050818103600083015261098b8161094f565b9050919050565b61099b816105fb565b81146109a657600080fd5b50565b6000815190506109b881610992565b92915050565b6000602082840312156109d4576109d3610566565b5b60006109e2848285016109a9565b91505092915050565b7f546f6b656e207472616e73666572206661696c65642e00000000000000000000600082015250565b6000610a216016836107ba565b9150610a2c826109eb565b602082019050919050565b60006020820190508181036000830152610a5081610a14565b9050919050565b6000602082019050610a6c60008301846108b2565b92915050565b7f4e487b7100000000000000000000000000000000000000000000000000000000600052603260045260246000fdfea2646970667358221220b4728616676dfbc10901863eaf709a3834a1ae963801c88b94d883fc51526df364736f6c63430008180033",
  "linkReferences": {},
  "deployedLinkReferences": {}
}